:100000000C9434000C943E000C943E000C943E0082
:100010000C943E000C943E000C943E000C943E0068
:100020000C943E000C943E000C943E000C943E0058
:100030000C943E000C943E000C943E000C943E0048
:100040000C943E000C943E000C943E000C943E0038
:100050000C943E000C943E000C943E000C943E0028
:100060000C943E000C943E0011241FBECFEFD8E04C
:10007000DEBFCDBF0E9440000C948D000C940000A8
:1000800080EC8AB98CE18BB989B199B18470987090
:10009000892B19F45E985F98F7CF89B199B1847074
:1000A0009071892BB9F389B199B188709071892BBE
:1000B00089F34A990CC05F9A2FEF81EE94E02150AA
:1000C00080409040E1F700C000005F980DC04B9960
:1000D00015C05E9A2FEF81EE94E021508040904051
:1000E000E1F700C000005E982FEF81EE94E0215010
:1000F00080409040E1F700C00000C6CF4C99C4CFCB
:100100005E9A5F9A2FEF81EE94E0215080409040FC
:0E011000E1F700C000005E98D8CFF894FFCF52
:00000001FF
